S00C00006C6162312E73726563B8
S113000045C0000053C0000051C000004FC00000B4
S11300104DC000004BC0000049C0000047C00000B4
S113002045C0000043C0000041C000003FC00000C4
S11300303DC000003BC0000039C0000037C00000D4
S113004035C0000033C0000031C000002FC00000E4
S11300506FC000002BC0000029C0000027C00000B2
S1130060C1C0000023C0000021C000001FC0000068
S11300708CC000001BC0000019C0000017C00000A5
S113008015C0000013C0000011C0000011241FBEE1
S1130090CFEFD0E4DEBFCDBF21E0A0E0B1E001C0EE
S11300A01D92A930B207E1F730D0DFC0A9CFEAE74B
S11300B0F0E080818F688083ECE7F0E080818264E7
S11300C080830895EAE7F0E0808180648083089566
S11300D081E4C3D084E5C1D08DE0BFD08AE0BDC047
S11300E00895E1ECF0E080818869808387E690E000
S11300F09093C5008093C4000895E0ECF0E09081F3
S113010095FFFDCF8093C6000895239A0A98E9DFEE
S113011098D0CDDF7894D6DFC8E086B1807880931C
S113012003018823D1F385B18C2785B9D1DFF5CFBD
S11301301F920F920FB60F9211240BB60F922F93AA
S11301403F934F935F936F937F938F939F93AF935B
S1130150BF93EF93FF938091C60080930401809135
S113016004017BD0FF91EF91BF91AF919F918F914B
S11301707F916F915F914F913F912F910F900BBEA3
S11301800F900FBE0F901F9018951F920F920FB6ED
S11301900F9211240BB60F922F933F934F935F93BB
S11301A06F937F938F939F93AF93BF93EF93FF933B
S11301B08091CE0080930001809100019EDFFF9129
S11301C0EF91BF91AF919F918F917F916F915F91CB
S11301D04F913F912F910F900BBE0F900FBE0F9038
S11301E01F9018951F920F920FB60F9211240BB601
S11301F00F922F933F934F935F936F937F938F93BC
S11302009F93AF93BF93EF93FF9380917800909166
S11302107900909302018093010154DFFF91EF91E3
S1130220BF91AF919F918F917F916F915F914F910A
S11302303F912F910F900BBE0F900FBE0F901F9008
S11302401895E9ECF0E080818869808387E690E086
S11302509093CD008093CC000895E8ECF0E0908179
S111026095FFFDCF8093CE000895F894FFCF54
S9030000FC
