:1000000045C0000053C0000051C000004FC00000B8
:100010004DC000004BC0000049C0000047C00000B8
:1000200045C0000043C0000041C000003FC00000C8
:100030003DC000003BC0000039C0000037C00000D8
:1000400035C0000033C0000031C000002FC00000E8
:100050005CC000002BC0000029C0000027C00000C9
:1000600070C0000023C0000021C000001FC00000BD
:100070001DC000001BC0000019C0000017C0000018
:1000800015C0000013C0000011C0000011241FBEE5
:10009000CFEFD0E4DEBFCDBF21E0A0E0B1E001C0F2
:1000A0001D92A430B207E1F71FD07AC0A9CFEAE7CA
:1000B000F0E080818F688083ECE7F0E080818064ED
:1000C00080830895EAE7F0E080818064808308956A
:1000D000E1ECF0E080818869808387E690E090938E
:1000E000C5008093C4000895239A0A98F1DFDFDFEA
:1000F0007894E8DF98E080B18470809302018823CF
:10010000D1F385B1892785B9F6CF1F920F920FB62B
:100110000F9211240BB60F928F93EF93FF93E6EC9F
:10012000F0E0808180930301809103018083FF913F
:10013000EF918F910F900BBE0F900FBE0F901F90FD
:1001400018951F920F920FB60F9211240BB60F92B3
:100150002F933F934F935F936F937F938F939F93CF
:10016000AF93BF93EF93FF938091780090917900C4
:100170009093010180930001A5DFFF91EF91BF9162
:10018000AF919F918F917F916F915F914F913F912F
:100190002F910F900BBE0F900FBE0F901F901895D0
:0401A000F894FFCF01
:00000001FF
