S00C00006C6162312E73726563B8
S113000045C0000060C000005EC000005CC000008D
S11300105AC0000058C0000056C0000054C0000080
S113002052C0000050C000004EC000004CC0000090
S11300304AC0000048C0000046C0000044C00000A0
S113004042C0000040C000003EC000003CC00000B0
S113005090C1000038C0000036C0000034C0000069
S113006022C2000030C000002EC000002CC00000DE
S1130070ADC1000028C0000026C0000024C000005C
S113008022C0000020C000001EC0000011241FBEBA
S1130090CFEFD0E4DEBFCDBF11E0A0E0B1E0E6E9F0
S11300A0F7E000E00BBF02C007900D92A639B1073C
S11300B0D9F722E0A6E9B1E001C01D92A930B20748
S11300C0E1F713D166C39CCFEAE7F0E080818F6843
S11300D08083ECE7F0E08081816480830895EAE71F
S11300E0F0E080818064808308950F931F93CF9301
S11300F0DF93FC0101900020E9F73197E81BF90B2D
S11301001E161F064CF4EC018C010E0F1F1F899163
S113011005D2C017D107D9F7DF91CF911F910F9165
S113012008950F931F93CF93DF93FC010190002058
S1130130E9F73197E81BF90B1E161F0654F4EC017E
S11301408C010E0F1F1F899190E0C7D0C017D107F3
S1130150D1F7DF91CF911F910F91089589E091E03C
S1130160C4DF8DE0DBD12FEF80E792E021508040A7
S11301709040E1F700C0000086E191E0B6DF8DE039
S1130180CDC10895EF92FF920F931F93CF93DF9306
S11301908C01EB01FC0101900020E9F73197CF01BC
S11301A0801B910BFB0101900020E9F73197E61BBE
S11301B0F70B8E0F9F1F0196B9D17C01B801E2D2D3
S11301C0BE01C701D4D2C701DF91CF911F910F9116
S11301D0FF90EF900895EF92FF920F931F93CF93A8
S11301E0DF937C01EB0183E291E09BDF8DE090E003
S11301F074D02FEF80E792E0215080409040E1F7E7
S113020000C00000BE0186E391E0BCDF8C016EE318
S113021071E0B8DFEC0185DF8DE090E05ED0B701DE
S113022080E491E0AFDF7DDF8AE190E056D08DE09D
S113023090E053D0C80112D2CE0110D2DF91CF91F9
S11302401F910F91FF90EF900895CF92DF92EF925C
S1130250FF920F931F93CF93DF936C01EB018A01FD
S1130260061B170BC80162D19C011016110664F419
S1130270D601AC0FBD1FFC01AC01400F511F9D9175
S11302809193E417F507D9F7C901DF91CF911F9135
S11302900F91FF90EF90DF90CF900895CF93DF936D
S11302A0EC0182E090E042D128812E3211F0FC0171
S11302B0208329812E3211F0FC012183DF91CF911B
S11302C00895E1ECF0E080818869808387E690E01E
S11302D09093C5008093C4000895E0ECF0E0908111
S11302E095FFFDCF8093C6000895239A0A98E9DF0D
S11302F009D1EADE7894F3DE109297011092960108
S11303002DDF81E090E09093970180939601109205
S11303109F0110929E01CC24C394D12C809196010C
S113032090919701892BD1F746E250E06CE170E09F
S113033081EA91E08ADF7C0142E350E068E270E008
S113034081EA91E082DF8C0142E350E06CE170E0ED
S113035081EA91E07ADFEC01C701A0DFC8019EDFEA
S113036067E871E0CE0137DFD0929701C092960121
S1130370D5CF1F920F920FB60F9211240BB60F9286
S11303802F933F934F935F936F937F938F939F9399
S1130390AF93BF93EF93FF938091C60080939D0129
S11303A080919D01BBD0FF91EF91BF91AF919F913F
S11303B08F917F916F915F914F913F912F910F900A
S11303C00BBE0F900FBE0F901F9018951F920F92A7
S11303D00FB60F9211240BB60F922F933F934F93A6
S11303E05F936F937F938F939F93AF93BF93EF9399
S11303F0FF938091CE0080939801809198016DDFE6
S11304008091960190919701019791F4E0919E015A
S1130410F0919F018091CE00EF55FE4F8083809133
S11304209E0190919F01019690939F0180939E015C
S11304303091CE00E0919E01F0919F01E256FE4F73
S11304408081E0919E01F0919F01E356FE4F20814F
S113045091E08D3309F490E081E02D3309F480E0DC
S1130460892371F081E03D3009F080E0882341F078
S1130470109297011092960110929F0110929E0182
S1130480FF91EF91BF91AF919F918F917F916F9168
S11304905F914F913F912F910F900BBE0F900FBE24
S11304A00F901F9018951F920F920FB60F92112460
S11304B00BB60F922F933F934F935F936F937F935A
S11304C08F939F93AF93BF93EF93FF9380917800A3
S11304D09091790090939A018093990100DEFF91A5
S11304E0EF91BF91AF919F918F917F916F915F91A8
S11304F04F913F912F910F900BBE0F900FBE0F9015
S11305001F901895E9ECF0E080818869808387E684
S113051090E09093CD008093CC000895E8ECF0E057
S1130520908195FFFDCF8093CE0008950F931F9384
S1130530CF93DF938230910510F482E090E0E09154
S11305400702F091080220E030E0A0E0B0E030972C
S113055019F1408151810281138148175907C8F06C
S11305608417950769F4109731F012960C9312973B
S113057013961C9327C0009307021093080222C00D
S11305802115310519F04217530718F49A01BD01DA
S1130590EF01DF01F801DBCF21153105F9F0281B4C
S11305A0390B2430310580F48A819B8161157105F2
S11305B021F0FB019383828304C09093080280930B
S11305C00702FE01329644C0FE01E20FF31F81933D
S11305D0919322503109398328833AC0209105022E
S11305E030910602232B41F4209102013091030142
S11305F030930602209305022091000130910101FD
S11306002115310541F42DB73EB7409104015091B5
S11306100501241B350BE0910502F0910602E21757
S1130620F307A0F42E1B3F0B2817390778F0AC0111
S11306304E5F5F4F2417350748F04E0F5F1F5093EE
S11306400602409305028193919302C0E0E0F0E03A
S1130650CF01DF91CF911F910F910895CF93DF9335
S1130660009709F481C0FC01329713821282A09191
S11306700702B0910802109781F420813181820F22
S1130680931F20910502309106022817390751F56E
S1130690F0930602E093050267C0ED0120E030E02C
S11306A0CE17DF0740F44A815B819E014115510555
S11306B0F1F0EA01F5CFD383C28340815181840FE5
S11306C0951FC817D90759F488819981840F951FFC
S11306D00296918380838A819B81938382832115EF
S11306E0310529F4F0930802E09307023DC0E901C3
S11306F0FB83EA8349915991C40FD51FEC17FD0779
S113070061F480819181840F951F0296E901998398
S11307108883828193819B838A83E0E0F0E0129650
S11307208D919C911397009719F0FD01DC01F7CF8F
S11307308D919C9111979D012E5F3F4F820F931FC6
S113074020910502309106022817390769F4309781
S113075029F4109208021092070202C01382128236
S1130760B0930602A0930502DF91CF910895FB0197
S1130770DC010D900020E9F7119701900D92002003
S1130780E1F70895FB01DC0101900D920020E1F7EF
S10907900895F894FFCF68
S113079600000902200041540041542B43475053A2
S11307A65057523D310041542B43475053494E460E
S11307B63D300041542B434D47463D310041542BB7
S11307C6434D47533D0041542B434D47533D22006F
S11307D65761726E696E67212041626E6F726D6138
S11307E66C20616363656C65726174696F6E206405
S11307F66574656374656420617420746865206635
S11308066F6C6C6F77696E6720636F6F7264696E65
S1130816617465733A2000303034363730363134FB
S1090826313136370000F9
S9030000FC
