S00C00006C6162312E73726563B8
S113000045C0000060C000005EC000005CC000008D
S11300105AC0000058C0000056C0000054C0000080
S113002052C0000050C000004EC000004CC0000090
S11300304AC0000048C0000046C0000044C00000A0
S113004042C0000040C000003EC000003CC00000B0
S113005068C0000038C0000036C0000034C0000092
S1130060BAC0000030C000002EC000002CC0000048
S113007085C0000028C0000026C0000024C0000085
S113008022C0000020C000001EC0000011241FBEBA
S1130090CFEFD0E4DEBFCDBF11E0A0E0B1E0E0E6F9
S11300A0F2E000E00BBF02C007900D92A030B10750
S11300B0D9F721E0A0E0B1E001C01D92AD30B20754
S11300C0E1F727D0CBC09CCFEAE7F0E080818F68CE
S11300D08083ECE7F0E08081816480830895EAE71F
S11300E0F0E08081806480830895E1ECF0E0808119
S11300F08869808387E690E09093C5008093C4006C
S11301000895E0ECF0E0908195FFFDCF8093C60068
S11301100895239A0A98E9DF8DD0D6DF7894DFDF3B
S1130120FFCF1F920F920FB60F9211240BB60F92AE
S11301302F933F934F935F936F937F938F939F93EB
S1130140AF93BF93EF93FF938091C6008093060112
S1130150809106017BD0FF91EF91BF91AF919F9168
S11301608F917F916F915F914F913F912F910F905C
S11301700BBE0F900FBE0F901F9018951F920F92F9
S11301800FB60F9211240BB60F922F933F934F93F8
S11301905F936F937F938F939F93AF93BF93EF93EB
S11301A0FF938091CE008093000180910001A9DF2C
S11301B0FF91EF91BF91AF919F918F917F916F913B
S11301C05F914F913F912F910F900BBE0F900FBEF7
S11301D00F901F9018951F920F920FB60F92112433
S11301E00BB60F922F933F934F935F936F937F932D
S11301F08F939F93AF93BF93EF93FF938091780076
S113020090917900909302018093010168DFFF913E
S1130210EF91BF91AF919F918F917F916F915F917A
S11302204F913F912F910F900BBE0F900FBE0F90E7
S11302301F901895E9ECF0E080818869808387E657
S113024090E09093CD008093CC000895E8ECF0E02A
S1130250908195FFFDCF8093CE000895F894FFCF51
S9030000FC
