:1000000045C0000060C000005EC000005CC0000091
:100010005AC0000058C0000056C0000054C0000084
:1000200052C0000050C000004EC000004CC0000094
:100030004AC0000048C0000046C0000044C00000A4
:1000400042C0000040C000003EC000003CC00000B4
:1000500019C1000038C0000036C0000034C00000E4
:100060006BC1000030C000002EC000002CC000009A
:1000700036C1000028C0000026C0000024C00000D7
:1000800022C0000020C000001EC0000011241FBEBE
:10009000CFEFD0E4DEBFCDBF11E0A0E0B1E0E8E2F9
:1000A000F6E000E00BBF02C007900D92AA34B10742
:1000B000D9F721E0AAE4B1E001C01D92AB35B20747
:1000C000E1F7BFD0AFC29CCFEAE7F0E080818F6854
:1000D0008083ECE7F0E0808181648083089590E084
:1000E0008D5791099C0122F422273327281B390BB5
:1000F0002630310514F480E3089581E30895EAE79A
:10010000F0E080818064808308950F931F93CF93E4
:10011000DF93FC0101900020E9F73197E81BF90B10
:100120001E161F064CF4EC018C010E0F1F1F899147
:100130003ED1C017D107D9F7DF91CF911F910F9111
:100140000895EF92FF920F931F93CF93DF938C014B
:10015000EB01FC0101900020E9F73197CF01801BF2
:10016000910BFB0101900020E9F73197E61BF70B9B
:100170008E0F9F1F019623D17C01B8014CD2BE0186
:10018000C7013ED2C701DF91CF911F910F91FF9020
:10019000EF9008950F931F93CF93DF93EC018B01A2
:1001A00086E091E0B2DF8DE002D12FEF80E792E0B0
:1001B000215080409040E1F700C0000060E171E014
:1001C00082E191E0BEDFB801BCDF60E171E0B9DF40
:1001D0009CDF8DE0ECD02FEF80E792E02150804053
:1001E0009040E1F700C000006DE070E08AE190E02F
:1001F000A8DFCE018ADF8AE1DAD08DE0D8D02FEFF8
:1002000080E792E0215080409040E1F700C000007C
:10021000DF91CF911F910F910895E1ECF0E0808183
:100220008869808387E690E09093C5008093C4003E
:100230000895E0ECF0E0908195FFFDCF8093C6003B
:100240000895239A0A98E9DFA6D03EDF789457DF15
:10025000C8E7D0E08881998196958795969587958E
:100260003EDF813329F46BE171E089E291E092DFB6
:100270002FEF83EC99E0215080409040E1F700C0DF
:100280000000E8CF1F920F920FB60F9211240BB609
:100290000F922F933F934F935F936F937F938F931F
:1002A0009F93AF93BF93EF93FF938091C60080938A
:1002B0005001809150017BD0FF91EF91BF91AF91A0
:1002C0009F918F917F916F915F914F913F912F916E
:1002D0000F900BBE0F900FBE0F901F9018951F929E
:1002E0000F920FB60F9211240BB60F922F933F93DC
:1002F0004F935F936F937F938F939F93AF93BF932E
:10030000EF93FF938091CE0080934A0180914A0140
:1003100090DFFF91EF91BF91AF919F918F917F916E
:100320006F915F914F913F912F910F900BBE0F9066
:100330000FBE0F901F9018951F920F920FB60F923D
:1003400011240BB60F922F933F934F935F936F93AC
:100350007F938F939F93AF93BF93EF93FF9380917E
:1003600078009091790090934C0180934B01C7DE07
:10037000FF91EF91BF91AF919F918F917F916F917D
:100380005F914F913F912F910F900BBE0F900FBE39
:100390000F901F901895E9ECF0E0808188698083C8
:1003A00087E690E09093CD008093CC000895E8EC30
:1003B000F0E0908195FFFDCF8093CE0008950F93DC
:1003C0001F93CF93DF938230910510F482E090E089
:1003D000E0915901F0915A0120E030E0A0E0B0E056
:1003E000309719F1408151810281138148175907D3
:1003F000C8F08417950769F4109731F012960C93A2
:10040000129713961C9327C00093590110935A0119
:1004100022C02115310519F04217530718F49A012B
:10042000BD01EF01DF01F801DBCF21153105F9F046
:10043000281B390B2430310580F48A819B8161159A
:10044000710521F0FB019383828304C090935A01CC
:1004500080935901FE01329644C0FE01E20FF31F62
:100460008193919322503109398328833AC0209196
:10047000570130915801232B41F420910201309112
:1004800003013093580120935701209100013091CE
:1004900001012115310541F42DB73EB7409104010A
:1004A00050910501241B350BE0915701F091580143
:1004B000E217F307A0F42E1B3F0B2817390778F03B
:1004C000AC014E5F5F4F2417350748F04E0F5F1F9A
:1004D00050935801409357018193919302C0E0E0FB
:1004E000F0E0CF01DF91CF911F910F910895CF934D
:1004F000DF93009709F481C0FC01329713821282C6
:10050000A0915901B0915A01109781F42081318155
:10051000820F931F209157013091580128173907F6
:1005200051F5F0935801E093570167C0ED0120E0C9
:1005300030E0CE17DF0740F44A815B819E01411510
:100540005105F1F0EA01F5CFD383C2834081518197
:10055000840F951FC817D90759F488819981840F92
:10056000951F0296918380838A819B8193838283E6
:100570002115310529F4F0935A01E09359013DC04A
:10058000E901FB83EA8349915991C40FD51FEC1708
:10059000FD0761F480819181840F951F0296E90126
:1005A00099838883828193819B838A83E0E0F0E052
:1005B00012968D919C911397009719F0FD01DC0123
:1005C000F7CF8D919C9111979D012E5F3F4F820F28
:1005D000931F20915701309158012817390769F46A
:1005E000309729F410925A011092590102C01382D7
:1005F0001282B0935801A0935701DF91CF910895D3
:10060000FB01DC010D900020E9F7119701900D929C
:100610000020E1F70895FB01DC0101900D9200201C
:08062000E1F70895F894FFCF03
:1006280000005B01200041542B434D47463D3100FB
:10063800220041542B434D47533D0030303333366D
:100648003538383036303238005761726E696E6727
:10065800212041626E6F726D616C20616363656C0D
:0A06680065726174696F6E21000075
:00000001FF
