:1000000045C0000060C000005EC000005CC0000091
:100010005AC0000058C0000056C0000054C0000084
:1000200052C0000050C000004EC000004CC0000094
:100030004AC0000048C0000046C0000044C00000A4
:1000400042C0000040C000003EC000003CC00000B4
:100050000EC2000038C0000036C0000034C00000EE
:100060008DC2000030C000002EC000002CC0000077
:100070002BC2000028C0000026C0000024C00000E1
:1000800022C0000020C000001EC0000011241FBEBE
:10009000CFEFD0E4DEBFCDBF11E0A0E0B1E0ECE7F0
:1000A000F8E000E00BBF02C007900D92A83CB1073A
:1000B000D9F722E0A8ECB1E001C01D92AB33B20742
:1000C000E1F790D1D9C39CCFEAE7F0E080818F6857
:1000D0008083ECE7F0E0808181648083089590E084
:1000E0008D5791099C0122F422273327281B390BB5
:1000F0002530310514F480E3089581E30895EAE79B
:10010000F0E080818064808308950F931F93CF93E4
:10011000DF93FC0101900020E9F73197E81BF90B10
:100120001E161F064CF4EC018C010E0F1F1F899147
:1001300060D2C017D107D9F7DF91CF911F910F91EE
:1001400008950F931F93CF93DF93FC01019000203C
:10015000E9F73197E81BF90B1E161F064CF4EC016A
:100160008C010E0F1F1F899135D1C017D107D9F708
:10017000DF91CF911F910F91089586E091E0C5DF47
:100180008DE037C2089589E091E0BFDF8DE031D284
:100190002FEF80E792E0215080409040E1F700C0CF
:1001A000000086E191E0B1DF8DE023D22FEF80E700
:1001B00092E0215080409040E1F700C0000087E2CB
:1001C00091E0A3DF8DE015C20895EF92FF920F93A7
:1001D0001F93CF93DF938C01EB01FC010190002072
:1001E000E9F73197CF01801B910BFB0101900020B3
:1001F000E9F73197E61BF70B8E0F9F1F019609D287
:100200007C01B80132D3BE01C70124D3C701DF91FD
:10021000CF911F910F91FF90EF9008950F931F932F
:10022000CF93DF93EC018B0182E391E06EDF8DE0F1
:10023000E0D12FEF80E792E0215080409040E1F73D
:1002400000C000006DE471E08CE391E0BEDFB80116
:10025000BCDF6DE471E0B9DF58DF8DE0CAD12FEF6C
:1002600080E792E0215080409040E1F700C000001C
:10027000CE014BDF8AE1BDD18DE0BBD1DF91CF91C3
:100280001F910F910895CF92DF92EF92FF920F93FB
:100290001F93CF93DF936C01EB018A01061B170BB1
:1002A000C801B7D19C011016110664F4D601AC0F39
:1002B000BD1FFC01AC01400F511F9D919193E417AC
:1002C000F507D9F7C901DF91CF911F910F91FF90E9
:1002D000EF90DF90CF900895EF92FF920F931F93CE
:1002E000CF93DF93EC018B0182E391E00EDF8DE091
:1002F00080D12FEF81EE94E0215080409040E1F7D3
:1003000000C00000B80185E491E05FDF7C016DE48E
:1003100071E05BDF8C01F9DE8DE06BD12FEF81EEB8
:1003200094E0215080409040E1F700C00000FE01C1
:1003300001900020E9F7AF014C1B5D0B42505109C1
:1003400060E070E0CE019FDFBC018FE491E03DDF13
:10035000DCDE8AE14ED18DE04CD1C701F2D1C8017B
:10036000F0D1DF91CF911F910F91FF90EF90089501
:100370000F931F93CF93DF93EC0142E050E060E0D6
:1003800070E081DF6EE270E020DF8C0145E050E03C
:1003900063E070E0CE0177DFBC01C80116DF8C019D
:1003A0004AE050E065E070E0CE016DDFBC01C801BD
:1003B0000CDFDF91CF911F910F910895E1ECF0E0F8
:1003C00080818869808387E690E09093C500809360
:1003D000C4000895E0ECF0E0908195FFFDCF80939C
:1003E000C6000895239A0A98E9DFF7D06DDE789465
:1003F00086DE1092C9011092C801C5DE81E090E04E
:100400009093C9018093C8011092CC011092CB0146
:10041000C8E7D0E001E010E0888199819695879542
:10042000969587955CDE8033B9F78091C8019091ED
:10043000C901892B91F442E450E06FE270E083ED52
:1004400091E021DFBC0186E991E0BFDE69EB71E05C
:1004500043DF1093C9010093C8012FEF83EC99E0AB
:10046000215080409040E1F700C00000D5CF1F929E
:100470000F920FB60F9211240BB60F922F933F934A
:100480004F935F936F937F938F939F93AF93BF939C
:10049000EF93FF938091C6008093D1018091D101A9
:1004A000A8D0FF91EF91BF91AF919F918F917F91D4
:1004B0006F915F914F913F912F910F900BBE0F90D5
:1004C0000FBE0F901F9018951F920F920FB60F92AC
:1004D00011240BB60F922F933F934F935F936F931B
:1004E0007F938F939F93AF93BF93EF93FF938091ED
:1004F000CE008093CA018091CA016CDF8091C8014F
:100500009091C901019791F4E091CB01F091CC0158
:100510008091CE00ED52FE4F80838091CB0190916F
:10052000CC0101969093CC018093CB018091CE00B9
:100530008D3089F4E091CB01F091CC01EF52FE4F68
:1005400080818C3241F41092C9011092C80110923E
:10055000CC011092CB01FF91EF91BF91AF919F9190
:100560008F917F916F915F914F913F912F910F905C
:100570000BBE0F900FBE0F901F9018951F920F92F9
:100580000FB60F9211240BB60F922F933F934F93F8
:100590005F936F937F938F939F93AF93BF93EF93EB
:1005A000FF9380917800909179009093CE01809391
:1005B000CD01A5DDFF91EF91BF91AF919F918F91FB
:1005C0007F916F915F914F913F912F910F900BBE53
:1005D0000F900FBE0F901F901895E9ECF0E080810E
:1005E0008869808387E690E09093CD008093CC006B
:1005F0000895E8ECF0E0908195FFFDCF8093CE0068
:100600000895E8ECF0E0808185FDFDCF8091CE007B
:1006100008950F931F93CF93DF938230910510F4C9
:1006200082E090E0E0913902F0913A0220E030E07F
:10063000A0E0B0E0309719F140815181028113812F
:1006400048175907C8F08417950769F4109731F0D7
:1006500012960C93129713961C9327C0009339029D
:1006600010933A0222C02115310519F042175307A1
:1006700018F49A01BD01EF01DF01F801DBCF21156C
:100680003105F9F0281B390B2430310580F48A81BB
:100690009B816115710521F0FB019383828304C066
:1006A00090933A0280933902FE01329644C0FE01D3
:1006B000E20FF31F819391932250310939832883EC
:1006C0003AC02091370230913802232B41F4209117
:1006D00002013091030130933802209337022091B8
:1006E0000001309101012115310541F42DB73EB7CC
:1006F0004091040150910501241B350BE091370214
:10070000F0913802E217F307A0F42E1B3F0B2817D5
:10071000390778F0AC014E5F5F4F2417350748F07A
:100720004E0F5F1F5093380240933702819391938D
:1007300002C0E0E0F0E0CF01DF91CF911F910F9177
:100740000895CF93DF93009709F481C0FC0132979D
:1007500013821282A0913902B0913A02109781F46B
:1007600020813181820F931F20913702309138020E
:100770002817390751F5F0933802E093370267C024
:10078000ED0120E030E0CE17DF0740F44A815B81C5
:100790009E0141155105F1F0EA01F5CFD383C283E3
:1007A00040815181840F951FC817D90759F488815A
:1007B0009981840F951F0296918380838A819B8102
:1007C000938382832115310529F4F0933A02E09353
:1007D00039023DC0E901FB83EA8349915991C40F75
:1007E000D51FEC17FD0761F480819181840F951F5F
:1007F0000296E90199838883828193819B838A830E
:10080000E0E0F0E012968D919C911397009719F01B
:10081000FD01DC01F7CF8D919C9111979D012E5F19
:100820003F4F820F931F20913702309138022817D3
:10083000390769F4309729F410923A02109239027C
:1008400002C013821282B0933802A0933702DF9164
:10085000CF910895FB01DC010D900020E9F711977D
:1008600001900D920020E1F70895FB01DC01019059
:0C0870000D920020E1F70895F894FFCFEE
:10087C0000003B02200041540041542B434750538D
:10088C005057523D310041542B43474E5353455121
:10089C003D22524D43220041542B43474E53494E67
:1008AC00460041542B434D47463D310041542B43A8
:1008BC004D47533D0041542B434D47533D22005768
:1008CC0061726E696E67212041626E6F726D616C30
:1008DC0020616363656C65726174696F6E20646519
:1008EC007465637465642061742074686520666F38
:1008FC006C6C6F77696E6720636F6F7264696E6181
:10090C007465733A2000687474703A2F2F6D61709F
:10091C00732E676F6F676C652E636F6D2F6D6170D3
:10092C00733F713D6C6F633A00303034363732317F
:08093C00353730333638000076
:00000001FF
