:1000000045C0000061C000005FC000005DC000008E
:100010005BC0000059C0000057C0000055C0000080
:1000200053C0000051C000004FC000004DC0000090
:100030004BC0000049C0000047C0000045C00000A0
:1000400043C0000041C000003FC000003DC00000B0
:10005000F1C5000039C0000037C0000035C0000005
:100060005DC6000031C000002FC000002DC00000A0
:100070001BC6000029C0000027C0000025C00000EA
:1000800023C0000021C000001FC0000011241FBEBB
:10009000CFEFD0E4DEBFCDBF11E0A0E0B1E0EEE0F5
:1000A000F4E100E00BBF02C007900D92A43DB10740
:1000B000D9F722E0A4EDB1E001C01D92A735B20747
:1000C000E1F7E4D40C94050A9BCFCF93DF93CDB72F
:1000D000DEB78AE790E02AE730E0F90120812F6857
:1000E000FC0120838CE790E02CE730E0F9012081CF
:1000F0002164FC0120830000DF91CF910895CF930C
:10010000DF93CDB7DEB78AE790E02AE730E0F90168
:1001100020812064FC0120830000DF91CF910895AD
:10012000CF93DF9300D000D000D0CDB7DEB79E8351
:100130008D838D819E810E94FC099C838B831A8212
:1001400019820EC089819A812D813E81820F931F71
:10015000FC018081DDD689819A8101969A83898309
:1001600029813A818B819C81281739075CF3000033
:1001700026960FB6F894DEBF0FBECDBFDF91CF91AC
:100180000895CF93DF9300D000D000D0CDB7DEB775
:100190009E838D838D819E810E94FC099C838B832D
:1001A0001A8219820EC089819A812D813E81820F27
:1001B000931FFC0180814FD489819A8101969A8393
:1001C000898329813A818B819C81281739075CF3C7
:1001D000000026960FB6F894DEBF0FBECDBFDF91AC
:1001E000CF910895CF93DF93CDB7DEB780E191E053
:1001F00097DF8DE08DD60000DF91CF910895CF93EA
:10020000DF93CDB7DEB7AA970FB6F894DEBF0FBE67
:10021000CDBF98A78FA37AA769A783E191E080DF7C
:100220008DE076D680E090E0A8E4B2E48B879C87EE
:10023000AD87BE8720E030E04AE755E46B857C85DA
:100240008D859E851BD7DC01CB018D8F9E8FAF8F57
:10025000B8A320E030E040E85FE36D8D7E8D8F8DA8
:1002600098A18BD688232CF481E090E09AA389A3EF
:100270003BC020E03FEF4FE757E46D8D7E8D8F8DC3
:1002800098A1F8D618163CF520E030E040E251E4A1
:100290006B857C858D859E85F1D6DC01CB01BC010B
:1002A000CD016FD6DC01CB019AA389A30FC080E9F1
:1002B00091E09CA38BA38BA19CA10197F1F79CA338
:1002C0008BA389A19AA101979AA389A389A19AA135
:1002D000892B69F713C06D8D7E8D8F8D98A151D6B6
:1002E000DC01CB019AA389A389A19AA19EA38DA326
:1002F0008DA19EA10197F1F79EA38DA38DE191E0C1
:100300009A83898386E291E09C838B832B813C8155
:1003100089819A81B901C7D29E838D8329A53AA587
:100320008D819E81B901BFD298878F832B813C81BB
:100330008F819885B901B7D29A87898789859A85EF
:10034000EFDE8DE0E5D580E090E0A8E4B2E48F87B1
:10035000988BA98BBA8B20E030E04AE755E46F8593
:10036000788989899A898AD6DC01CB018B8B9C8B11
:10037000AD8BBE8B20E030E040E85FE36B897C8989
:100380008D899E89FAD588232CF481E090E0988F9E
:100390008F8B3BC020E03FEF4FE757E46B897C89B0
:1003A0008D899E8967D618163CF520E030E040E242
:1003B00051E46F85788989899A8960D6DC01CB01FF
:1003C000BC01CD01DED5DC01CB01988F8F8B0FC036
:1003D00080E991E09A8F898F898D9A8D0197F1F745
:1003E0009A8F898F8F89988D0197988F8F8B8F899E
:1003F000988D892B69F713C06B897C898D899E89BB
:10040000C0D5DC01CB01988F8F8B8F89988D9C8F05
:100410008B8F8B8D9C8D0197F1F79C8F8B8F8FA18C
:1004200098A57EDE8AE174D58DE072D50000AA968B
:100430000FB6F894DEBF0FBECDBFDF91CF91089508
:10044000CF93DF93CDB7DEB76C970FB6F894DEBFCE
:100450000FBECDBF88E291E063DE8DE059D580E02C
:1004600090E0A8E4B2E489839A83AB83BC8320E064
:1004700030E04AE755E469817A818B819C81FED521
:10048000DC01CB018B8B9C8BAD8BBE8B20E030E0F5
:1004900040E85FE36B897C898D899E896ED58823CE
:1004A0002CF481E090E0988F8F8B3BC020E03FEFF1
:1004B0004FE757E46B897C898D899E89DBD51816B7
:1004C0003CF520E030E040E251E469817A818B81A3
:1004D0009C81D4D5DC01CB01BC01CD0152D5DC011E
:1004E000CB01988F8F8B0FC080E991E09A8F898F15
:1004F000898D9A8D0197F1F79A8F898F8F89988DC1
:100500000197988F8F8B8F89988D892B69F713C0EE
:100510006B897C898D899E8934D5DC01CB01988FCC
:100520008F8B8F89988D9C8F8B8F8B8D9C8D019756
:10053000F1F79C8F8B8F85E391E0F2DD8DE0E8D4BD
:1005400080E090E0A8E4B2E48D839E83AF83B88717
:1005500020E030E04AE755E46D817E818F81988507
:100560008DD5DC01CB0189879A87AB87BC8720E0DA
:1005700030E040E85FE369857A858B859C85FDD412
:1005800088232CF481E090E09E878D873BC020E09B
:100590003FEF4FE757E469857A858B859C856AD55F
:1005A00018163CF520E030E040E251E46D817E8198
:1005B0008F81988563D5DC01CB01BC01CD01E1D4ED
:1005C000DC01CB019E878D870FC080E991E0988B7D
:1005D0008F878F8598890197F1F7988B8F878D8505
:1005E0009E8501979E878D878D859E85892B69F7CE
:1005F00013C069857A858B859C85C3D4DC01CB01CA
:100600009E878D878D859E859A8B898B89899A890E
:100610000197F1F79A8B898B86E491E081DD8DE07B
:1006200077D400006C960FB6F894DEBF0FBECDBF36
:10063000DF91CF910895CF93DF93CDB7DEB7AE971B
:100640000FB6F894DEBF0FBECDBF9CA78BA77EA7C9
:100650006DA781E591E09A83898383E191E060DD74
:100660008DE056D480E090E0A8ECB2E48B879C87C4
:10067000AD87BE8720E030E04AE755E46B857C8596
:100680008D859E85FBD4DC01CB0189A39AA3ABA306
:10069000BCA320E030E040E85FE369A17AA18BA130
:1006A0009CA16BD488232CF481E090E09EA38DA3C1
:1006B0003BC020E03FEF4FE757E469A17AA18BA14F
:1006C0009CA1D8D418163CF520E030E040E251E47B
:1006D0006B857C858D859E85D1D4DC01CB01BC01E9
:1006E000CD014FD4DC01CB019EA38DA30FC080E9C7
:1006F00091E098A78FA38FA198A50197F1F798A7EC
:100700008FA38DA19EA101979EA38DA38DA19EA1D4
:10071000892B69F713C069A17AA18BA19CA131D45F
:10072000DC01CB019EA38DA38DA19EA19AA789A7D1
:1007300089A59AA50197F1F79AA789A786E291E082
:100740009C838B8388E991E09E838D832DA53EA5B4
:100750008D819E81B901A7D098878F832B813C81A1
:100760008F819885B9019FD09A87898789859A85D5
:10077000D7DC8DE0CDD380E090E0A8ECB2E48B8BA9
:100780009C8BAD8BBE8B20E030E04AE755E46B8953
:100790007C898D899E8972D4DC01CB018F8B988FE7
:1007A000A98FBA8F20E030E040E85FE36F89788D51
:1007B000898D9A8DE2D388232CF481E090E09C8F80
:1007C0008B8F3BC020E03FEF4FE757E46F89788D78
:1007D000898D9A8D4FD418163CF520E030E040E228
:1007E00051E46B897C898D899E8948D4DC01CB01D9
:1007F000BC01CD01C6D3DC01CB019C8F8B8F0FC018
:1008000080E991E09E8F8D8F8D8D9E8D0197F1F700
:100810009E8F8D8F8B8D9C8D01979C8F8B8F8B8D59
:100820009C8D892B69F713C06F89788D898D9A8D7E
:10083000A8D3DC01CB019C8F8B8F8B8D9C8D98A3D3
:100840008F8F8F8D98A10197F1F798A38F8F8BA52C
:100850009CA5D2D501979C018BA59CA5A90160E020
:1008600070E054D0988B8F872F85388989819A8141
:10087000B90119D09A8B898B89899A8951DC8AE1CF
:1008800047D38DE045D38F8198851BD589859A857F
:1008900018D50000AE960FB6F894DEBF0FBECDBFE0
:1008A000DF91CF9108950F931F93CF93DF9300D0E3
:1008B00000D000D0CDB7DEB79C838B837E836D8361
:1008C0008B819C8199D58C018D819E8195D5800FDE
:1008D000911F01965ED49A8389832B813C81898103
:1008E0009A81B90182D52D813E8189819A81B90190
:1008F00071D589819A8126960FB6F894DEBF0FBE16
:10090000CDBFDF91CF911F910F910895CF93DF93CA
:10091000CDB7DEB72A970FB6F894DEBF0FBECDBFB6
:100920009E838D8378876F835A87498729853A8587
:100930008F819885A901481B590BCA012AD49C8331
:100940008B831A8219821AC089819A812B813C81FA
:10095000820F931F49815A812F813885240F351FBB
:10096000A9012D813E81240F351FF9012081FC0151
:10097000208389819A8101969A83898329853A8582
:100980008F819885281B390B89819A81821793075B
:10099000DCF28B819C812A960FB6F894DEBF0FBEE5
:1009A000CDBFDF91CF910895CF93DF93CDB7DEB761
:1009B00028970FB6F894DEBF0FBECDBF98878F8300
:1009C0008F81988542E050E060E070E09FDF6EE24A
:1009D00070E069DF9A8389838F81988545E050E0D4
:1009E00063E070E093DF9C0189819A81B9015BDF4C
:1009F0009C838B838F8198854AE050E065E070E0AE
:100A000085DF9C018B819C81B9014DDF9E838D83A5
:100A10008D819E8128960FB6F894DEBF0FBECDBFA4
:100A2000DF91CF910895CF93DF93CDB7DEB781ECFF
:100A300090E021EC30E0F90120812869FC0120835D
:100A400084EC90E027E630E0FC0131832083000055
:100A5000DF91CF910895CF93DF931F92CDB7DEB78B
:100A60008983000080EC90E0FC018081882F90E079
:100A700080729927892BB1F386EC90E02981FC01E3
:100A8000208300000F90DF91CF910895CF93DF93E3
:100A9000CDB7DEB768970FB6F894DEBF0FBECDBFF7
:100AA00084E290E024E230E0F90120812860FC013A
:100AB000208381E290E021E230E0F90120812B7F68
:100AC000FC012083B0DF0CD200DB789418DB10929D
:100AD000D5011092D401B4DC81E090E09093D5016F
:100AE0008093D4011092DA011092D90188E790E046
:100AF000FC01808191819695879596958795909335
:100B0000D8018093D7018091E201813079F710926A
:100B1000E20181E4A0DF8BEE91E09A8389838981F1
:100B20009A8142E450E06FE270E0F0DE9C838B83B8
:100B300082EA91E09E838D838B819C8198878F834D
:100B40002F8138858D819E81B901ADDE9A87898795
:100B500089859A8565EC71E06EDD80E090E0A8E41F
:100B6000B3E48B879C87AD87BE8720E030E04AE7FF
:100B700055E46B857C858D859E8580D2DC01CB011B
:100B80008F87988BA98BBA8B20E030E040E85FE339
:100B90006F85788989899A89F0D188232CF481E03E
:100BA00090E09C8B8B8B3BC020E03FEF4FE757E4FE
:100BB0006F85788989899A895DD218163CF520E07D
:100BC00030E040E251E46B857C858D859E8556D270
:100BD000DC01CB01BC01CD01D4D1DC01CB019C8B6C
:100BE0008B8B0FC080E991E09E8B8D8B8D899E89C8
:100BF0000197F1F79E8B8D8B8B899C8901979C8B3C
:100C00008B8B8B899C89892B69F713C06F857889B9
:100C100089899A89B6D1DC01CB019C8B8B8B8B891E
:100C20009C89988F8F8B8F89988D0197F1F7988F7A
:100C30008F8B5CCF1F920F9200905F000F92112458
:100C400000905B000F922F933F934F935F936F93AE
:100C50007F938F939F93AF93BF93EF93FF93CF9324
:100C6000DF93CDB7DEB786EC90E0FC018081809306
:100C7000E9018091E9014CD10000DF91CF91FF9112
:100C8000EF91BF91AF919F918F917F916F915F9104
:100C90004F913F912F910F9000925B000F90009227
:100CA0005F000F901F9018951F920F9200905F00A9
:100CB0000F92112400905B000F922F933F934F935C
:100CC0005F936F937F938F939F93AF93BF93EF93B4
:100CD000FF93CF93DF93CDB7DEB78EEC90E0FC01AE
:100CE00080818093D6018091D601B5DE0000DF912E
:100CF000CF91FF91EF91BF91AF919F918F917F9194
:100D00006F915F914F913F912F910F9000925B00F7
:100D10000F9000925F000F901F9018951F920F92F6
:100D200000905F000F92112400905B000F922F93B0
:100D30003F934F935F936F937F938F939F93AF9363
:100D4000BF93EF93FF93CF93DF93CDB7DEB788E7E1
:100D500090E0FC0180819181969587959695879585
:100D60008D5791099093E0018093DF018091DD011F
:100D70009091DE018130910571F082309105A1F0F2
:100D8000892BD9F48091DF019091E0019093DC01EF
:100D90008093DB0112C08091DF019091E00190937C
:100DA00052028093510209C08091DF019091E001CD
:100DB0009093500280934F0200004091DB015091CC
:100DC000DC018091DB019091DC01489F9001499FFB
:100DD000300D589F300D11246091510270915202D4
:100DE0004091510250915202649FC001659F900D45
:100DF000749F900D1124280F391F60914F0270913C
:100E0000500240914F0250915002649FC001659F73
:100E1000900D749F900D1124820F931F092E000CCA
:100E2000AA0BBB0B8093E5019093E601A093E70129
:100E3000B093E80180910001909101019C0140E094
:100E400050E08091E5019091E601A091E701B09119
:100E5000E801281739074A075B0718F481E08093F7
:100E6000E2018091DD019091DE0101969093DE0117
:100E70008093DD018091DD019091DE01039721F4E3
:100E80001092DE011092DD018CE790E0FC01808180
:100E90008C7F8093E1018CE790E02091DD0130911F
:100EA000DE01322F2091E101232BFC01208327D981
:100EB0000000DF91CF91FF91EF91BF91AF919F9192
:100EC0008F917F916F915F914F913F912F910F90F3
:100ED00000925B000F9000925F000F901F9018959A
:100EE000CF93DF93CDB7DEB789EC90E029EC30E00B
:100EF000F90120812869FC0120838CEC90E027E631
:100F000030E0FC01318320830000DF91CF91089510
:100F1000CF93DF931F92CDB7DEB78983000088ECB3
:100F200090E0FC018081882F90E080729927892BC6
:100F3000B1F38EEC90E02981FC01208300000F903A
:100F4000DF91CF910895CF93DF931F92CDB7DEB796
:100F5000000088EC90E0FC018081882F90E0807296
:100F60009927892BB1F78EEC90E0FC018081898371
:100F700089810F90DF91CF9108952FD008F481E0FF
:100F8000089557D088F09F5790F0B92F9927B751FF
:100F9000A0F0D1F0660F771F881F991F1AF0BA953D
:100FA000C9F712C0B13081F05ED0B1E008955BC0E6
:100FB000672F782F8827B85F39F0B93FCCF3869533
:100FC00077956795B395D9F73EF490958095709590
:100FD00061957F4F8F4F9F4F0895990F0008550FD0
:100FE000AA0BE0E8FEEF16161706E807F907C0F0AF
:100FF00012161306E407F50798F0621B730B840BB7
:10100000950B39F40A2661F0232B242B252B21F490
:1010100008950A2609F4A140A6958FEF811D811D30
:10102000089557FD9058440F551F59F05F3F71F0D8
:101030004795880F97FB991F61F09F3F79F087953F
:101040000895121613061406551FF2CF4695F1DFC8
:1010500008C0161617061806991FF1CF8695710558
:10106000610508940895E894BB2766277727CB018C
:1010700097F90895B2DF08F48FEF08950BD078C088
:1010800069D028F06ED018F0952309F05AC05FC0DF
:101090001124EACFC6DFA0F3959FD1F3950F50E05E
:1010A000551F629FF001729FBB27F00DB11D639F1A
:1010B000AA27F00DB11DAA1F649F6627B00DA11DC0
:1010C000661F829F2227B00DA11D621F739FB00D66
:1010D000A11D621F839FA00D611D221F749F3327D6
:1010E000A00D611D231F849F600D211D822F762F6F
:1010F0006A2F11249F5750408AF0E1F088234AF06C
:10110000EE0FFF1FBB1F661F771F881F91505040B7
:10111000A9F79E3F510570F014C0A6CF5F3FECF3D6
:10112000983EDCF3869577956795B795F795E795A3
:101130009F5FC1F7FE2B880F911D9695879597F9B4
:10114000089597F99F6780E870E060E008959FEF49
:1011500080EC089500240A9416161706180609064E
:10116000089500240A94121613061406050608951D
:10117000092E0394000C11F4882352F0BB0F40F4A5
:10118000BF2B11F460FF04C06F5F7F4F8F4F9F4FE5
:1011900008950F931F93CF93DF938230910510F43E
:1011A00082E090E0E0915502F091560220E030E0BC
:1011B000A0E0B0E0309719F14081518102811381A4
:1011C00048175907C8F08417950769F4109731F04C
:1011D00012960C93129713961C9327C000935502F6
:1011E0001093560222C02115310519F042175307FA
:1011F00018F49A01BD01EF01DF01F801DBCF2115E1
:101200003105F9F0281B390B2430310580F48A812F
:101210009B816115710521F0FB019383828304C0DA
:101220009093560280935502FE01329644C0FE010F
:10123000E20FF31F81939193225031093983288360
:101240003AC02091530230915402232B41F4209153
:101250000C0130910D0130935402209353022091E0
:101260000A0130910B012115310541F42DB73EB72C
:1012700040910E0150910F01241B350BE091530258
:10128000F0915402E217F307A0F42E1B3F0B28172E
:10129000390778F0AC014E5F5F4F2417350748F0EF
:1012A0004E0F5F1F509354024093530281939193CA
:1012B00002C0E0E0F0E0CF01DF91CF911F910F91EC
:1012C0000895CF93DF93009709F481C0FC01329712
:1012D00013821282A0915502B0915602109781F4A8
:1012E00020813181820F931F20915302309154024B
:1012F0002817390751F5F0935402E093530267C061
:10130000ED0120E030E0CE17DF0740F44A815B8139
:101310009E0141155105F1F0EA01F5CFD383C28357
:1013200040815181840F951FC817D90759F48881CE
:101330009981840F951F0296918380838A819B8176
:10134000938382832115310529F4F0935602E093AB
:1013500055023DC0E901FB83EA8349915991C40FCD
:10136000D51FEC17FD0761F480819181840F951FD3
:101370000296E90199838883828193819B838A8382
:10138000E0E0F0E012968D919C911397009719F090
:10139000FD01DC01F7CF8D919C9111979D012E5F8E
:1013A0003F4F820F931F2091530230915402281710
:1013B000390769F4309729F41092560210925502B9
:1013C00002C013821282B0935402A0935302DF91A1
:1013D000CF910895FB01DC010D900020E9F71197F2
:1013E00001900D920020E1F70895FB01DC010190CE
:1013F0000D920020E1F70895FC0101900020E9F72B
:0E140000809590958E0F9F1F0895F894FFCF52
:10140E00B80B6745341200000000000057022000A0
:10141E0041540041542B434D47463D310041542B1E
:10142E00434D47533D00220041542B4347505350E8
:10143E0057523D310041542B43474E535345513D76
:10144E0022524D43220041542B43474E53494E46A0
:10145E00005761726E696E67212041626E6F726D08
:10146E00616C20616363656C65726174696F6E2077
:10147E0064657465637465642061742074686520A6
:10148E00666F6C6C6F77696E6720636F6F726469DD
:10149E006E617465733A200041542B434D47533DA2
:1014AE002200687474703A2F2F6D6170732E676FFF
:1014BE006F676C652E636F6D2F6D6170733F713D3D
:1014CE006C6F633A00303034363732313537303363
:0414DE00363800009C
:00000001FF
